:020000041000EA
:1000000000B5324B212058609868022188439860DF
:10001000D860186158612E4B002199600221596106
:100020000121F02299502B49196001219960352056
:1000300000F044F80222904214D00621196600F024
:1000400034F8196E01211966002018661A6600F04E
:100050002CF8196E196E196E052000F02FF8012189
:100060000842F9D1002199601B49196000215960AB
:100070001A491B48016001219960EB211966A021F2
:10008000196600F012F800219960164914480160C1
:100090000121996001BC002800D000471248134993
:1000A000086003C880F30888084703B5996A0420EC
:1000B0000142FBD001200142F8D103BD02B5186610
:1000C0001866FFF7F2FF186E186E02BD00000240BE
:1000D000000000180000070000035F00212200005C
:1000E000F4000018222000A00001001008ED00E03C
:1000F00000000000000000000000000074B24E7A12
:1001000000200420F7010010C3010010C5010010F9
:10011000C1010010C1010010C1010010C101001097
:10012000C1010010C1010010C1010010C701001081
:10013000C1010010C1010010C9010010CB01001065
:10014000CD010010CD010010CD010010CD01001037
:10015000CD010010CD010010CD010010CD01001027
:10016000CD010010CD010010CD010010CD01001017
:10017000CD010010CD010010CD010010CD01001007
:10018000CD010010CD010010CD010010CD010010F7
:10019000CD010010CD010010CD010010CD010010E7
:1001A000CD010010CD010010CD010010CD010010D7
:1001B000CD010010CD010010CD010010CD010010C7
:1001C00000BE00BE00BE00BE00BE00BEEFF3058054
:1001D000103800BEF2EB88717C410010A041001085
:1001E0003402001090A31AE700201F49086006C8D7
:1001F00081F3088810471D48006800282FD10DA4FE
:100200000ECC002902D000F012F8F9E71849194A7B
:10021000002000E001C19142FCD1174988471749ED
:1002200088471749884700BEFDE701C901C29A42C5
:10023000FBD37047A0410010C0000020C80E002072
:10024000A84F00100000042000000420A84F001058
:10025000001004200010042000000000704709482E
:1002600001F0AAFE0047000008ED00E0000000D009
:10027000C80E0020AC1A0020311E001069050010C5
:10028000251F00105756000006005250ABB36053B4
:10029000D83F001006005250861C0302E83F0010B1
:1002A000060052505422A29DF03F0010050052500B
:1002B000DE65F468A84F0010F8B5C0460448054B49
:1002C00010B5834203D0044B002B00D0984710BDDB
:1002D000C80E0020C80E0020000000000648074994
:1002E000091A8B10C90FC91810B5491003D0044B57
:1002F000002B00D0984710BDC80E0020C80E00206B
:100300000000000010B5074C2378002B09D1FFF73F
:10031000D5FF054B002B02D0044800E000BF0123AD
:10032000237010BDD811002000000000D83D00103F
:10033000054B10B5002B03D00449054800E000BF71
:10034000FFF7CCFF10BDC04600000000DC1100200C
:10035000D83D0010F0B5C646294C00B52368626848
:1003600013433DD1274D284A2B6801202E686F6822
:1003700059008B5C5218002180197941286069600E
:10038000180052789046421E9041C0B21F4D2B700B
:1003900003F08EFC2B0000220121002003F09CF9C9
:1003A000266867683900300001F056FF051C40469A
:1003B00001F028FF011C164801F0D9FE154901F093
:1003C000EAFE011C281C01F015FF002812D10122B1
:1003D0000023B6185F412660676080BCB846F0BD58
:1003E000084B00201A68084B52009B185B7898460F
:1003F0000023CBE70022002322606360EDE7C046C4
:10040000D00F0020C80F00207419002064190020AC
:100410004FEC444000007A43F0B557464E464546FF
:10042000DE46324B324CE0B55C62324C324A1C63E1
:10043000324C1A605C63324C324A9C63324C5A60D4
:10044000A0461C64314C324AA4465C64314C3249AB
:100450009C64324C3248DC64324C334F1C65334C64
:10046000334E5C65334C344DA3469C65334C9A60E7
:10047000A246DC65324C334AA1461C665C465C668B
:1004800054469C664C46DC662F4C1F611C672F4C03
:100490009E611D62D8605A61D9619962DA62D8633F
:1004A0005C6744469C676446DC678024185184205E
:1004B0001F5004301A5004301E50043019500C4C98
:1004C00004301D5004301C5004301950A0215A50E3
:1004D000A42200200021074C9C501D4B186059603D
:1004E000F0BCBB46B246A946A046F0BD7419002038
:1004F0000508110411080508040404041104110876
:100500000508100404041004070410081608070462
:100510001604070407080D08110810080B080D0839
:10052000100816080B080A080718071007040A081D
:10053000111805100B080B10050406080A100B080B
:100540000B100A101608100807080A0807081608F2
:10055000C80F002010B5FFF75FFF02F053F803F05B
:100560009DFB03F05FFA10BD10B5FFF7F3FF04E049
:1005700002F020FA012000F001FF0120002140429A
:1005800002F0ACFA02F00EFA0028F1D1002003F0DC
:1005900087F80028EED0FFF7DDFEEBE77047C04696
:1005A0000020704710B50C780134E4B2042C00D957
:1005B00010BD002003F074F80028F9D0012CF7D109
:1005C000FFF7C8FEF4E7C04600487047203E001021
:1005D00000487047343E001000487047FC3D001052
:1005E00070B5002826D0032831D81A4B8000C65891
:1005F000300003F067FBC0B2011C1F2815D8C9B238
:10060000002821D00023144DAA1CF05C0133DCB279
:1006100010800232A142F8D8C0230131C9B249008A
:100620009B0019432800298070BD1F21C9B20028F2
:10063000E8D109E0084D074B02221968A81C01F017
:1006400091FEC1218900EDE70449034DEAE700204E
:10065000EAE7C046D00D00200C1200200203000083
:100660000123D0228340120693629361094A8300DA
:100670009446402263441968C0004A40C02111409A
:100680008022520113431960034B9C4605236044AA
:100690004360704704C0014000400140024B1868AD
:1006A0008007C00F7047C04600C0064070B5EFF32A
:1006B000108C72B60D4D2B68002BFCD0BFF35F8FF2
:1006C0000724CB08C618C05C01230C40A3401C00C3
:1006D0000440034207D103433370BFF35F8F2C60A4
:1006E0008CF3108870BD100001F020FC2C0100D0AC
:1006F000F8B54746CE46884680B5EFF3108C72B603
:10070000214D2C68002CFCD0BFF35F8F9A422CD86F
:10071000D4080727055D061901241740BC402C4268
:100720001FD007210127894609E0D408055D061975
:100730004C4639001440A1400C00294211D001322E
:100740009342F2D201204042BFF35F8F00220E4B52
:100750001A608CF3108800280FDBC0BCB946B04685
:10076000F8BD2C4310003470EEE7BFF35F8F002319
:100770002B608CF31088012040424346002BECD0C4
:10078000089801F0D3FBC0462C0100D00021044B97
:10079000044ABFF35F8F02C39342FAD17047C04649
:1007A000000100D0800100D0044A1078431CDBB265
:1007B000172B00D9102313707047C046E00D00209E
:1007C00000B5054B83B00100009318221F23034896
:1007D000FFF78EFF03B000BD243F0010EC14002093
:1007E00001238340002904D0034A1360034A1360A5
:1007F0007047034A1360FBE780E200E000E100E09D
:1008000080E100E0024B10309B688000C0587047C8
:1008100000ED00E070B50D00EFF3108672B60F4AE0
:100820001368002BFCD0BFF35F8F0D4B10309B681B
:1008300084001B590B4A934203D09D4201D001F022
:100840008DFB074B9B681D51BFF35F8FBFF35F8F1D
:100850000022024B1A6086F3108870BD240100D07C
:1008600000ED00E0CD010010F0B557464E46DE46E3
:100870004546E0B585B0060002911700EFF3108BF6
:1008800072B6674A1368002BFCD0BFF35F8F002558
:10089000644B5D579A46002D00DAA4E06B00624C71
:1008A00003935B199B009846A146C1444B465246B0
:1008B0009B79103613705D4BB2009B68019299587A
:1008C0000B1B2F2B34D95A4B994200D0A4E0039B29
:1008D000584A9C46584B6544AD0063534346023327
:1008E0006519E418554B0121043B1B1B1B055B0DCF
:1008F00013436B80524BEF71AB80FF23AB71029BB4
:10090000AB604B460B431900484B019A9B689950CA
:10091000BFF35F8FBFF35F8F0022414B1A608BF3F1
:10092000108805B0F0BCBB46B246A946A046F0BD53
:1009300001200A008243D379BB422FD845464E4658
:10094000130040491B1B5B415943090D3A4B63534C
:100950003A4B02356519043B5B1B1B05354D5B0D9E
:100960002B4373800426B446E0444444131F1B1BEE
:100970004C46A17102991B05A16049465B0D2B43B2
:10098000A380314BE77101431360BDE75800C018E5
:1009900080002018C679BE422BD902000623D35608
:1009A000002BF3DA101D8246284880460426764242
:1009B000B446E14450464E46361A3005400D824654
:1009C00056461C48957106439680039A94466544A2
:1009D0001D4AAD00641922604246A371029BA280A9
:1009E000E771A36090E701F0B9FA002553465D571F
:1009F00054E7101D82469088400500158446404605
:100A0000D444664604302018301AE0260005400D14
:100A1000360230438046C9E701F0A0FA57E7C046E6
:100A2000240100D0A81A0020E40D002000ED00E011
:100A3000CD01001000E0FFFF00A1FFFF140E002019
:100A400001BDFFFFAAAA00000148804701BD0000C8
:100A5000F0B5DE4657464E464546E0B50C0083B03D
:100A6000EFF3108972B6584A1368002BFCD0BFF31D
:100A70005F8F564B9A68030010339F00D559544A34
:100A80009046954232D0A54243D0524EAA1B2F2AFF
:100A90002CD801228240924651464F4A126811409A
:100AA000019151464D4A1160BFF35F8FEFF305820C
:100AB0009346002A33D101232A009A4393689C422B
:100AC00008D177E04B005B189B00F3189968A142AE
:100AD0002AD01A00062151560029F3DA019B002B77
:100AE00019D052463E4B1A603B4B1A60374B9B68FD
:100AF000DD51BFF35F8FBFF35F8F0022324B1A606F
:100B000089F3108803B0F0BCBB46B246A946A046A4
:100B1000F0BD1500EAE75246304B1A60E6E7934213
:100B2000C9D001F01BFAC6E706215956002921DB7E
:100B30004A005018800034188046A0689860E07918
:100B4000D871062020569871002824DBA488F01A5A
:100B50006405241544440019E0240005400D2402D6
:100B60002043988052181F4B9200B6181A781970BB
:100B7000B271B3E7594600290FD1FF3191711A497B
:100B8000918018490A789A71184A9B1B5B415A4315
:100B9000120D0A70A2E71648E3E7164A1649D21A60
:100BA000083A5002400D01439980144952080A4303
:100BB000DA8093E70621515613000029B8DA5A4625
:100BC000002AEAD14546DCE7240100D000ED00E030
:100BD000CD010010E40D002000E100E080E100E024
:100BE00080E200E0A81A002001BDFFFFAAAA0000D1
:100BF00001BD00001E0E002000F0FFFF00F8FFFF07
:100C000070B5EFF3058101240443EFF3108C72B645
:100C1000214A1368002BFCD0BFF35F8F1F4B0500E8
:100C20001F4AED1A6D416A43120D1E4D8900AE68D0
:100C300052B27658A6421CD00621595691421CD079
:100C400012215956914222D01E215956914220D04C
:100C50002A2159560324914210D0134B19781A7047
:100C60008171BFF35F8F00220B4B1A608CF31088E9
:100C700070BDAB680D4C5C50EFE7002461000919B2
:100C800089005B18FF21997109499980E5E70124E2
:100C9000F4E70224F2E7C046240100D0E40D00206E
:100CA000AAAA000000ED00E0A81A0020CD01001063
:100CB00001BDFFFF054B064A1360064A13605360EF
:100CC0009360D3601361536193617047808080802B
:100CD00000E400E004E400E0024B9C46614489002B
:100CE000016070474000003410B50400FFF75CFD60
:100CF00001002000FFF7F0FFFF232371BFF35F8F98
:100D000010BDC04610B50400FFF74EFD01002000E5
:100D1000FFF7E2FFFF23A380BFF35F8F10BDC04644
:100D200010B504000120FFF74BFD044B9C466044C6
:100D300080002060BFF35F8F10BDC04640000034CC
:100D400083680B4810B5844661446244090112016E
:100D50009A18591854684B6801209C4201D802D057
:100D60000020C0B210BD12680B689A42F9D8F7E7AC
:100D7000FFFFFF0F0A4B1968EFF3108072B60A6885
:100D8000002AFCD0BFF35F8F1B68BFF35F8F002288
:100D90001A6080F3108840BF002000217047C046D1
:100DA000901A0020F8B557464E464546DE46E0B557
:100DB00099460CAB1C780DAB1B78060090469A4602
:100DC0000768002C11D1BC7B002C42D065003B6829
:100DD0002D19033D59194B78BB73002B00D1FB73C0
:100DE00000238B704B700B7004E065003B682D197D
:100DF000033D5919B2682A4B94464246E3181B0139
:100E000063441A604A465A600A9A9A600B9ADA60FA
:100E100000238B704B700B707B7B9B46002B2BD081
:100E200022005946B8687B6898473A68002816D06F
:100E30005B4658465B005B445519033BA870D118CC
:100E4000D35C002B00D06B705B460C707B73A345AA
:100E500013D0F0BCBB46B246A946A046F8BD5B46DF
:100E60005B005B44033BD3189C705119525D002A10
:100E700000D05A705B460B707C7342464B46307D07
:100E800000F09CFB051E06D05346002B03D1210029
:100E9000306800F0BDFD0E9B002BDAD01D70D8E746
:100EA000FFFFFF0FF0B5DE4657464E46454600238E
:100EB000E0B58BB00893664B8200D45800239B4664
:100EC000099000F01BFB626806000F00EFF310852D
:100ED00072B61368002BFCD0BFF35F8F23689C466B
:100EE0005B7B9946002B68D0A2685A4B90464B44D6
:100EF0001B01984443461A685B6810001900801B68
:100F0000B941002963DD099800F058FB0023002255
:100F1000984600230692079300239A466368BFF31E
:100F20005F8F5A461A6085F310885346002B08D10C
:100F30000028C6D10BB0F0BCBB46B246A946A046BD
:100F4000F0BD089B414618024B461843D0476268E3
:100F500006000F00EFF3108572B61368002BFCD06B
:100F6000BFF35F8F002F4FDB33003B4302D0236979
:100F7000002B60D12368D97B002907D04A00521882
:100F800019688C4649466244033A51709A7B002A9C
:100F900001D14A469A734A46DA734B46E168013BEF
:100FA000CA5C0132CA545B4623616368BFF35F8F3A
:100FB0005A461A6085F3108883E70023002298467A
:100FC000002306920793002300209A46A6E70029F3
:100FD00001D1002897D10021604600F097FC4346DC
:100FE0001A685B680692079343469B689A46434695
:100FF000DB689846E3684B44013B1B7808931B026F
:1010000003432361002089E72369002BB2D0069AAD
:10101000079B921BBB41002B15DB59460491012114
:1010200003914946029141460191514620000091A9
:10103000FFF7B8FEB7E700F061FA32003B00121884
:101040004B41002BE9DA0122034B5242E5E7C0464F
:10105000741A0020FFFFFF0FFFFFFF7F10B5144C35
:101060006368002B04D00A211248FFF735FE10BD3B
:101070002300114A1021206800F062FB032000F0D9
:1010800031FA032000F00AFB03200C4900F050FA6B
:10109000FFF78AFB0A4B9C4603232375D0231B06CC
:1010A0001B6860446375074B80006060DC60DAE7B2
:1010B0002C0E0020901A0020410D0010A50E0010EB
:1010C00040000034741A0020F0B557464E4645469D
:1010D000DE46E0B585B0019310AB1B7806000393A4
:1010E00000239A46984600927268EFF3108972B610
:1010F0001368002BFCD0BFF35F8F3568AC7B002CEE
:1011000049D067002B683F19033FDB195A78AA734F
:10111000002A00D1EA73B168484A8C4600980199C8
:10112000A21812016244106051600E9991600F99EB
:10113000D16042469A705A701A706B7B9B46002BA6
:1011400045D022001900A8686B6898472A680028D3
:1011500030D05B4658465B005B44D719033BB87000
:10116000D118D35C002B00D07B705B460C706B7386
:101170005C452DD0F3681B19013B18787368BFF3E9
:101180005F8F42461A6089F310885346002B2CD19A
:101190000002204307E07368BFF35F8F1C6089F390
:1011A00010880120404205B0F0BCBB46B246A946BB
:1011B000A046F0BD5B465B005B44033BD3189C70CC
:1011C000D119D25D002A00D05A705B460B706C7347
:1011D000307D009A019B00F0F1F982460028C9D0C9
:1011E0002100306800F014FCC4E7039B002B23D0DF
:1011F0000E9B00200F999847030004000D000B433D
:101200001AD000290ADA009A019B121BAB41009206
:101210000193002B0ADB039B9A4665E700F06EF909
:1012200024184D4100940195002DF4DA0123044C5B
:101230005B4200930194EEE70020B4E7FFFFFF0F4D
:10124000FFFFFF7F70B542680400EFF3108572B6B0
:101250001368002BFCD0BFF35F8F2068CEB2437BB6
:10126000B3420AD0FF230B405A00D31802689446B9
:101270006344033B9B78002B13D0E268FF23944622
:101280000B406344013B0A0A1978D2B291420ED056
:1012900000206368BFF35F8F00221A6085F3108817
:1012A00070BD22698A42F3D100202361F1E7310049
:1012B00000F0AEFBEDE7C046F0B504000D000626D9
:1012C0007642F717C64636196F4100B584B08F4293
:1012D00014D811D000F012F932003B00121A8B41E1
:1012E000002B15DC002B3ED02000290000F010F967
:1012F00004B080BCB846F0BD8642EBD9002600277A
:1013000000F0FCF832003B00121A8B41002BE9DDA3
:10131000002302930193154B3200009314483B00C5
:10132000FFF7D2FE0028DFDB00239846BC46114AB7
:10133000114F7B6A9C4504D8B96A8E42D4D99C452A
:10134000D2D11168EFF3108072B60B68002BFCD07D
:10135000BFF35F8F1368BFF35F8F4146196080F35F
:10136000108820BFE5E7002ABED0D1E7750D001038
:101370002C0E0020901A00200040054070B5060099
:1013800000F0BCF8FA2204000D0000233000002118
:10139000920000F0C9FE00196941002902DBFFF745
:1013A0008BFF70BD012001494042F8E7FFFFFF7F3E
:1013B00070B5EFF3058305000C0084B0002B0AD054
:1013C000164A0020536A9C4203D8926A0130AA420E
:1013D0001FD304B070BD124E02930193114B020053
:1013E000009330000B00FFF76FFE011EE8DD20BF09
:1013F0003000FFF727FF094B0020596A8C42E8D8DC
:101400009B6A0130AB42E4D2641A631E9C41E0B295
:10141000DFE7E41A631E9C41E0B2DAE700400540D2
:101420002C0E0020750D0010F0B5EFF30582D646A6
:101430004F4646461000C0B51038EFF3108872B61C
:10144000214C2368002BFCD0BFF35F8F01231900D0
:1014500081401E4D1F006963AA461D4D29601D4D28
:101460002E78AC463500C5402F402B4209D1BFF342
:101470005F8F276088F31088E0BCBA46B146A84663
:10148000F0BD5346144D5F6A83005D59AF420ED3E1
:10149000124A8E439B5862461670BFF35F8F00223C
:1014A000226088F31088002BE6D09847E4E70C4BC5
:1014B00092009C46624413681360BFF35F8F002361
:1014C000236088F31088D7E7280100D0004005404A
:1014D0003C700540A91A0020941A0020DC1300205B
:1014E000D03F054010B50100024A0348FFF7DEF87F
:1014F00010BDC046403F0010A71A0020034B596A98
:101500000A00986A596A8A42FAD170470040054039
:10151000064A536A9942FCD807D1044B02E05A6A42
:10152000914202D19A6A8242F9D370470040054045
:1015300070B504000D00EFF3108672B61A4A1368F6
:10154000002BFCD0BFF35F8F002D1BD02000FFF7D6
:1015500059F9164981420AD02000FFF75BF90121B1
:101560002000FFF73DF90123A340114A1360114BFE
:10157000A400E550BFF35F8F00220B4B1A6086F387
:10158000108870BD0B4BA200D5500122A2400A4921
:1015900020000B7893430B700449FFF759FA0021A0
:1015A0002000FFF71DF9E5E7280100D029140010FD
:1015B00038600540DC130020A91A0020F0B54F4622
:1015C000D6464646C0B507002F4C616A0D00A66A94
:1015D000616AA942FAD18B4208D805D00120E0BC4B
:1015E000BA46B146A846F0BDB242F7D9EFF3108A29
:1015F00072B6264801680029FCD0BFF35F8F012531
:10160000BD402349204C8846097889462943C9B200
:101610008C46414660460870391D1E488900656346
:101620000A51B9000B50216A0020294219D0616A81
:101630000800A66A616A8142FAD18B4219D801D1A9
:10164000B24216D8CC451DD00F4B1F201D625D63E2
:1016500001230740BB40104A1E38136043464A46E8
:101660001A70BFF35F8F0022084B1A608AF310884C
:10167000B5E70020BFF35F8F0022044B1A608AF3A6
:101680001088ACE70120ECE700400540280100D0BD
:10169000A91A0020941A002080E200E0EFF3108CD9
:1016A00072B60A490B68002BFCD0BFF35F8F012391
:1016B0008340074A0748136202789A430270BFF3D7
:1016C0005F8F00230B608CF310887047280100D0D7
:1016D00000400540A91A002070B50500140016004E
:1016E000002915D00C00002A12D080686B6898473A
:1016F000296800280ED073009B196200033B121961
:10170000CB18033A9C7088188A5C002A15D10670A1
:10171000200070BD63001B197200033B9219CB18A7
:10172000033A9E7088188A5C002A02D10470340043
:10173000EEE75A7004703400EAE75A700670E7E783
:1017400030B583600023CCB243730133047342602D
:101750008373C4730D000068012C06D9421C013349
:10176000DBB2137003329C42F9D1FF2129404B00B8
:101770005918002340180338437030BDF8B5CE46E1
:10178000474606000C0080B5002907D04D000368CD
:101790006D18033D5A195778002F04D12000C0BCA2
:1017A000B946B046F8BD7900C919033988464344A3
:1017B0005978894600215970517073683A002100A8
:1017C000806898473368002814D042469A1894706D
:1017D00059195B5D002B00D053700F7027004946EC
:1017E0003000FFF7CBFF390002003000FFF774FF35
:1017F0000400D3E7424641465D19AF709A185B5C1E
:10180000002B00D06B701470E9E7C046F0B5574666
:101810004546DE464E46E0B50D006B0001685B199B
:10182000DF1E0400C85D83B00192CA19002850D0A1
:1018300043001B18033BCB185E78B446002E1AD128
:10184000019E002E42D0E67B002E04D073009B192F
:10185000CB18033B5D70A37B002B00D1A573E57310
:1018600000282FD10023537003B0F0BCBB46B24612
:10187000A946A046F0BD72006244033A89184A782E
:10188000904600224A7091465A70010032002000B2
:10189000FFF722FF43468246002B07D05B002168FA
:1018A0004344033BCB185A78002A16D1424651468E
:1018B0002000FFF711FF2168019BCA19002BC2D13C
:1018C0000028CFD043001B18033BCB180021997090
:1018D000C8E7019B002BB6D1C4E75000801803383D
:1018E0000918487883464846487058704146200099
:1018F000FFF7F2FE594680462000FFF73FFF4146C2
:1019000002002000FFF7E8FE8046CFE7F0B557461B
:101910004546DE464E46E0B583B00191457B040066
:101920006B0000685B19DF1EC15DC219002952D02F
:101930004B005B18033BC3185E78B446002E1CD1E5
:10194000019E002E44D0E67B002E04D073009B192C
:10195000C318033B5D70A37B002B00D1A573E57317
:10196000002931D1002328005370617303B0F0BC0B
:10197000BB46B246A946A046F0BD72006244033A97
:101980008018427890460022427091465A7020009A
:101990003200FFF7A1FE43468246002B07D05B00D2
:1019A00021684344033BCB185A78002A17D142469A
:1019B00051462000FFF790FE019B01002068C219EC
:1019C000002BC0D10029CDD04B005B18033BC318BE
:1019D00000209870C6E7019B002BB4D1C2E75000ED
:1019E000801803380918487883464846487058706C
:1019F00041462000FFF770FE594680462000FFF761
:101A0000BDFE414602002000FFF766FE8046CEE79D
:101A100070B5040000292CD0437B8B422ED0056882
:101A200048004018033828188278002A21D0530033
:101A30009B18033BEA5CEE188A4202D11BE0002AA5
:101A400008D053009B18033BEB185A788A42F6D112
:101A500042785A7000230122837043702000FFF700
:101A6000D5FE617B02002000FFF736FE6073012087
:101A700000E0002070BD43783370EBE701221900CD
:101A8000FFF7C4FE60730120F4E7C04630B50C20B8
:101A900083B000F0B1F9FEF701FE00280ED0944BA0
:101AA000944A1A605A609A60DA601A615A619A61BF
:101AB000DA611A62904A5A6203B030BD8F4CA06757
:101AC00000F0A2F901228E4B1A60636C012BFCD14D
:101AD00003228C4B1A60894A936B012BFCD1013392
:101AE0000121894A89480093043300F02DF9052328
:101AF000874A00930121874800F026F9864B5A68EF
:101B0000FF2A02D8802252005A608022784C7D4BF6
:101B100021691201804D1A60002905D0606900F02A
:101B20007DFA01300138FDD1E0217B4B02201A689B
:101B30001140802252012A43116019684840032154
:101B40000140116004219A681142FCD0802280215A
:101B500092012A4309011160802252005A606F4BA2
:101B600023616F4B5968FF2900D85A600321644AEA
:101B70006B4B116002399A681142FCD0E0201A6860
:101B80001040802252011A43106018684840032117
:101B900001400220116062498A681042FCD0802214
:101BA00092011343802212011A6080225D4B520081
:101BB0004A6063615C4B5968FF2900D85A608022F3
:101BC0005A4BE1691201584D1A60002905D060692D
:101BD00000F024FA01300138FDD1E02252490B68AF
:101BE0001A4080235B012B431A60802380229B01D3
:101BF0002B4312011A6080223E4B52004A60E3617F
:101C00004B4B5968FF2900D85A608022494B216A02
:101C10001201474D1A60002905D0606900F0FEF9F5
:101C200001300138FDD1E02241490B681A40802380
:101C30005B012B431A60802380229B012B431201FE
:101C40001A60802380225B004B602A4BD202236201
:101C5000394B5968914200D25A608022374B616AF1
:101C60001201354D1A60002905D0606900F0D6F9DF
:101C700001300138FDD1E0222F490B681A40802342
:101C80005B012B431A60802380229B012B431201AE
:101C90001A608023DB024B60174B6362284B5A6843
:101CA000FF2A02D8802252005A608022254BA16967
:101CB0001201234D1A60002905D0606900F0AEF9C9
:101CC00001300138FDD1E0221D490B681A40802304
:101CD0005B012B431A60802380229B012B4312015E
:101CE0001A6080235B004B600E4BA361E4E6C046A4
:101CF000F0140020006CDC021BB7000000800040E4
:101D00003CB0004030B00040002F685900800240D5
:101D1000008C864700C0024030800040001BB700A6
:101D20003C800040405973075480004054B000404C
:101D30006080004060B000406C8000406CB00040AB
:101D40004880004048B00040F0B5C646040000B5E9
:101D50000C2090461F000E0000F060F94101091AA6
:101D60008D01691AC90009188901404600F056F929
:101D7000069B3F041A0323681743002B22DB1A4BF0
:101D80001A4DE21853425A4180235B019C461203CC
:101D9000174B62441A60174B1A601100AB689943E5
:101DA000FBD1C022231D92011A4321232660A0608B
:101DB00013602368002BFCDA0823E760136080BC03
:101DC000B846F0BD3F2322681340B342D7D1A36881
:101DD0001B051B0D8342D2D1EE22E368D2021340D1
:101DE000BB42CCD1EBE7C0460040FDBF00C0004085
:101DF00000E0004000F000408023024A9B000343C3
:101E0000D362704700800540AA23064A1B01136075
:101E10002F230549D360054B19605368002BFCDA6A
:101E20007047C0460040024000B0FA000060024027
:101E30002C4B2D4A70B51A602C4A2D4B2D491A6037
:101E400014008B689C43FBD12B4D2C4EB54208D21D
:101E5000013E761BB60808CD984723000134B342F3
:101E6000F9D1FFF713FE264A214B1A60214A9368E5
:101E7000DB43DB01DD09002BF9D14022214B224C51
:101E8000224E9A675A671A67DA66B44208D2236804
:101E90002000002B20D00834FEF734FFB442F6D3E4
:101EA0001B4E1C4CC022A168300000F05BFAA660FB
:101EB000FEF76CFCFEF7FEFEFFF7D0F8164C174E4F
:101EC000B44208D2013E361BB60808CC98472B0016
:101ED00001359E42F9D170BD0834FEF705FFB442CA
:101EE000D5D3DDE700E00040BFCDFBFEFE7F3C0028
:101EF00000F0004000C00040B00E0020C00E0020E6
:101F0000FFFFFF0100F00140A80E0020B00E0020EE
:101F10000000002000ED00E0C00E0020C80E0020F0
:101F200000BEFDE710B5FFF7FBFFC0460FB400B5DC
:101F3000084883B000F048FB049B002B07D005A99C
:101F40001800019100F018F8034800F03DFB012053
:101F5000FFF7E6FF643F0010743F001010B5014822
:101F6000FFF7E4FF783F001010B5002800D110BD46
:101F700000F0DEFAFBE7C04610B5094A030014681A
:101F800084B0002C08D0012200910648524203A9D7
:101F9000A047012004B010BD00F016FB0020F9E7B7
:101FA0006C190020691F001001480421014B1847DB
:101FB000600E0020D91F0010142310B501001888EE
:101FC00004331B88984710BD162310B501001888EC
:101FD00002331B88984710BDF8B54746CE4680B5FA
:101FE0000F1E19D01423994604330400002501263E
:101FF00098464B461888434621681B88984701C479
:10200000431E9841013540420640AF42F1D13000B5
:10201000C0BCB946B046F8BD0126F8E7114A936F37
:102020009B0813D210665166002905D0FFE7FFE731
:10203000FFE7516F106F704704B5002801D00020F2
:10204000C04301F089FE002104BDC046F0B5146E06
:10205000556E576F166FFFF7E5FF146655665767A5
:102060001667F0BD000000D0132370B51D78012D58
:1020700015D010DD1C48FFF7A7FF1C4C0100802283
:10208000200000F06FF9022D06D01948FFF794FFE9
:10209000184B186070BD154C174BA364F5E7164B31
:1020A000124C23606360A360E36023616361A361FA
:1020B000E36123626362A362E36223636363A363F6
:1020C000E36323646364A364E36423656365A365D6
:1020D000E36523666366A366E36623676367A367B6
:1020E000E367A364D1E7C04653440000D80F002043
:1020F0004C3300008C1A0020FD20001007B560460C
:1021000001880A0A0230DF2AFAD1C9B2820804D350
:10211000028840880004104300E00068014A5050E3
:10212000039007BDD80F002051434343C9188C4684
:10213000110C83B24B4310B4040C614392B280B2D1
:10214000504362431C041B0C001910BC594113047A
:10215000120CC01851416144704700004840414092
:1021600048400E4B5B6818470C4B1B6818470C4ADD
:10217000936F9B0802D2094BDB681847F0B5146EC9
:10218000556E576F166FFFF7F6FF054A14665566D2
:1021900057671667F0BD014B9B681847D8100020A1
:1021A000000000D007B548404140484001E0C0462B
:1021B00007B54200120E03D0FF2A03D1420218D8FD
:1021C000C00DC0054A00120E03D0FF2A03D14A02F7
:1021D0000FD8C90DC9050122414005D4414001D5A0
:1021E000814207BD884207BD0143491801D0C04361
:1021F000001807BD00B5FFF7D5FF01D9002000BDCD
:10220000012000BD491A002808D108467047000087
:10221000C10FC90700D54042002817D0F44603B4C7
:102220000B4B1B68984706BC81409E38404280316A
:1022300007D20B0607D04900490AC00510430843DE
:1022400060470130F8E7490A8902F5E77047000066
:102250008C1A0020054A10470029FBD0044B5B6E06
:10226000FC46184764DF052300100000052200101B
:10227000D8100020132310B512481C78FFF7A4FED5
:102280000100012C0AD003DD80220F4800F06AF81B
:102290000E48FFF791FE0E4B186010BD0A4C5422F9
:1022A000200000F05FF80B4B6365A365E3652366D0
:1022B0006366A366E36623676367A367E3672362D6
:1022C000E361E5E753460000D81000204C330000DE
:1022D0008C1A0020D922001007B5604601880A0A2E
:1022E0000230DF2AFAD1C9B2820804D302884088BA
:1022F0000004104300E00068014A5050039007BDFD
:10230000D8100020002230B5002906D5CD0705439E
:102310004808013A10E0002230B505000D430FD007
:10232000CD170C16AC4205D1C901440E2143C001A2
:102330000732F6E70500080052423D32014988475E
:1023400030BD0000EF29000001480421014B18476F
:10235000700E0020D91F0010014B1B6818470000A9
:10236000700E0020014B5B6818470000700E0020C3
:10237000030010B5080011001B68984710BDC04647
:10238000F0B546464F46D646C0B5437D80460E0062
:102390001700002B46D0002A3FDD4B1E9946244BE8
:1023A0000125002400209A460DE04B461B5D0D3BA5
:1023B0005A425341325DDBB20A2A0BD02B00013462
:1023C00001359F421ADD002CEFD14346325D1B7D63
:1023D0000A2AF3D1002BF1D1A04204DA4346211A94
:1023E0001B6830189847434650461B68022198479F
:1023F000013428002B0001359F42E4DC874204DDD4
:102400004346391A1B6830189847F619013E33784D
:102410000D3B5A42534142461375E0BCBA46B146A1
:10242000A846F0BD0368110030009847F5E7C046A4
:102430002C400010F0B5DE4657464E464546E0B506
:1024400085B017001C0006000D00FFF757F80023A9
:10245000304A12184B41002B58DB2F4908008A469E
:1024600001F092FC01906B1C03D1300001F02AFCBA
:102470000500002C25D1294B9846294B1C68002CBF
:1024800015D0002F20D1274F02E02469002C0ED058
:102490002368002BF9D03B68002B01D0A342F4D174
:1024A00020002A003100C0472469002CF0D1019B94
:1024B000002B27D105B0F0BCBB46B246A946A046CA
:1024C000F0BD194B9846D8E7164B994602ABDF1D75
:1024D0000A239B4602E02469002CE8D02368002BE5
:1024E000F9D04B461B68002B01D0A342F3D12A0040
:1024F00031002000C0475B460122390020003B70BC
:10250000C047E8E7504601F01FFCD3E70122074B24
:102510005242A2E740420F00A80E00208123001083
:10252000581500206015002071230010FFFFFF7F69
:10253000F0B5CE46474680B583B06B460600DD1D3C
:102540002870FEF7DBFF00231A4A12184B41002BBC
:102550002BDB19490800884601F016FC174B814611
:102560001C68002C14D0164F02E02469002C0FD0F8
:102570002368002BF9D03B68002B01D0A342F4D193
:10258000200001222900FFF7FBFE2469002CEFD177
:102590004B46002B05D1300003B0C0BCB946B04655
:1025A000F0BD404601F0D0FBF5E70122054B524259
:1025B000CFE7C04640420F00A80E0020581500206B
:1025C00060150020FFFFFF7F70B5040001F07AFB6B
:1025D00000230100050001222000FFF72BFF084B1C
:1025E0001C68002C06D06368002B05D0984724692E
:1025F000002CF8D1280070BD2469002CF3D1F9E734
:102600005815002010B500F001F810BD00207047EB
:1026100010B5024800F004F810BDC046841A00202E
:1026200030B5002589B004000922002101A80095D9
:10263000FFF792FE0922002105A80495FFF78CFE02
:102640004B236A466846137004A90D2201F074FBFF
:102650001521082220006944FFF784FE09B030BD2F
:1026600010B501210520FEF7BBF810BD10B5002202
:102670000021024800F066F910BDC0468415002014
:1026800080219022034B8902995080225201DA6402
:102690007047C046002011508022024B5202DA647B
:1026A0007047C04600201150F0B5C64600B5060080
:1026B00000F022F90C231B4DFF22AB6705201A49BD
:1026C000FEF7D2F840239846184C40220021200003
:1026D000FFF742FE43460127238321210023144AAA
:1026E0006770A260136063545F3161844146218743
:1026F000053963540F4A10496360E260A1620B60C0
:102700006362E26201F030FB80239B052F64EB647F
:1027100090230A4A3000EA50FFF7BEFF80BCB8465B
:10272000F0BDC04600001150B50400206415002023
:1027300084001050000110508000105010D0010093
:102740000B785B0602D14B78052B00D070478A7856
:10275000014B1A60FAE7C04600001150F0B5C646BA
:1027600000B54B790C791B0288782343CC787F2104
:10277000A4070140C509A20F4F001400324E7A1978
:102780005201B218907001206840507000205B0523
:102790005B0DD0701383D4768046CA00012D33D0F0
:1027A0002A488446880162448446B4446046826074
:1027B00040461060002933D0254AC9009046624641
:1027C000414451603F223F339343022C00D15B00D0
:1027D00020487A1901685201B218D1601E4ACB18FC
:1027E000036051405340802288465201934228D8CA
:1027F0004346A4061C4380237F197F011B06F6195C
:102800001C4373681C6011E01448844688016244CC
:102810008446B4446046826240461060002909D173
:1028200000236D01761973600D4BF360012080BCAD
:10283000B846F0BD084AC90090466246414451621C
:10284000C0E7FFF78BFBD3E764150020840010502E
:10285000040010507019002000001050800010502B
:102860000001105010B501F07FFA10BD10B57F20A7
:102870000C0020404000E409110000191A00034B2D
:102880004001C01800F05EF8012010BD6415002062
:102890007F22130010B50B400A420BD0C9098022D9
:1028A000580040180649400140181201002101F06B
:1028B0008BFA10BD02220348C909521A8266EEE75C
:1028C00064150020002011507F22100010B5084030
:1028D0000A4200D110BD0023C90940004018044934
:1028E0004001081800220349C37001F06DFAF1E7B6
:1028F00064150020FFF7FFFF80220D4B520410B536
:102900001A600C4B0C491A6010008B689843FBD17D
:102910000A4C9C2200212000FFF71EFD802200218E
:1029200052010748FFF718FD0923636710BDC04631
:1029300000E0004000F0004000C0004000001150E6
:102940000000105070B5837E04000D001600002BAF
:1029500017D10023E38201332000A682A3762561EC
:1029600001F022FA002804D080219023084A89022D
:10297000D150200001F0D8F9002805D00123237799
:1029800070BD01F019FAE4E7200001F005FAF7E75D
:1029900000201150024B5878431E9841C0B2704736
:1029A000C0120020024B18784007C00F7047C04685
:1029B000C0120020094A10B513785B07DC0F002B0A
:1029C00005DA182312781340182B02D000242000B7
:1029D00010BD034B1878FFF753FEF8E7C012002034
:1029E000A40E0020034B1878FF38431E9841C0B254
:1029F0007047C046A40E0020F8B5CE46474680B5C5
:102A00002C4E050033780120FF2B03D0C0BCB94603
:102A1000B046F8BD532200212748FFF79DFC274C04
:102A20002000FEF761F9264B1C60264C2000143074
:102A3000FEF776F9200001F011F9234B234F1C60BB
:102A4000234B9846002B04D0380000E000BF214BF8
:102A50001860424600243B78002A23D01E4A904644
:102A60001C4A9146A34212D80FD1434698470134DD
:102A70003B78E4B2A342F5D228003570FFF714FE8C
:102A80002800FFF7EDFD0120C0E70020BEE74A4621
:102A90001268630094461B19DB006344002BF4D0DA
:102AA0001B68E3E700F05EFE3B780020002BADD111
:102AB000E2E7C046A40E0020C012002078120020D9
:102AC00014130020880E002018130020A41A0020E0
:102AD00000000000F411002065370010F0B5DE465C
:102AE00057464E464546E0B58BB000F0A1FF0028A2
:102AF00000D10EE1CE4BCF4F9A46CF4D07AC3E688A
:102B00007269EFF3108172B61368002BFCD0BFF32B
:102B10005F8FB1613000210001F00CF87269B36978
:102B2000BFF35F8F0021116083F31088002800D16C
:102B3000EFE06378082BE2D852469B00D3589F46BB
:102B40006368002BDBD0A0689847D8E77F22217903
:102B5000B94E0A4050003618B046CB09984440465A
:102B600001263030C378B343C370C3780336B34310
:102B7000C370002A00D1F1E04346B04ADB7C002A52
:102B800006D0AF4A1278934200D245E19B1ADBB2DD
:102B9000002B00D0BDE0AB4E62792078A368B0472F
:102BA000ADE701222B78012113432B70332304203E
:102BB000EA5C8A43EA54EA5C8243EA540133EA5C01
:102BC0008A43EA54EA5C8243EA54237800209B4615
:102BD00000F0D4FC602223791A40602A0DD0402AEC
:102BE00000D1C1E0DB06DB0E012B00D13CE1022B62
:102BF00000D1D6E0002B00D1C5E020780021FFF7FE
:102C000047FE80212078FFF743FE78E78A4E33782D
:102C1000DB0700D473E78C4B002B00D16FE700E09B
:102C200000BF6CE7844E3378DB0700D467E7874B3F
:102C3000002B00D163E730780007C00F00E000BF31
:102C40005DE723787D4A98467D4B002699461B78A0
:102C5000002A00D17AE07E4A9346B34260D819D167
:102C60007C4B404698474B4601361B78F6B2B34240
:102C7000F3D2714E532200213000FFF76DFB10227A
:102C8000FF21F01CFFF768FB30002022FF211330EA
:102C9000FFF762FB00F068FC6F4B002B00D12EE7C2
:102CA00000E000BF2BE72378644A9846644B002677
:102CB00099461B78002A1FD0654A93469E423AD314
:102CC00021D1644B404698474B4601361B78F6B2FB
:102CD000B342F3D2584E532200213000FFF73CFBA1
:102CE0001022FF21F01CFFF737FB30002022FF21CC
:102CF0001330FFF731FB07E0404600F03DFD4B4647
:102D00001B78002BE6D04C4E00F02EFC2379B370DC
:102D1000F5E60BB0F0BCBB46B246A946A046F0BDF6
:102D20005A461268730094469B19DB006344002BDB
:102D3000B0D05B6895E75A461268730094469B19B9
:102D4000DB006344002BDED05B68BBE7404600F04D
:102D500013FD4B461B78002B9CD18AE762792078C3
:102D6000A36800F01FFCCAE63C48002800D144E7F5
:102D700000F004FC0121584608AA00E000BF00282A
:102D800000D0BCE639E7202A00D1A2E0002A00D01A
:102D900033E76379092B00D92FE7314A9B00D358D9
:102DA0009F467023217A0B4200D026E70F330B4059
:102DB0005B00E818CE090093204B8019C07C002BE3
:102DC00006D01F4B1B78984200D2A5E0C01AC0B2B3
:102DD000002800D09AE0002A00D058E1214B984604
:102DE00063791A00994602239A43012A00D152E1DD
:102DF0004B46002B00D000E7009B06AAEB189E195B
:102E00003036F37802329B07DB0F138058460223DB
:102E100008A900F04BFB72E65A00D3180C4ADB00FD
:102E20001268D318002B00D173E71E69B4E6C046C0
:102E30009840001018130020C0120020000000006D
:102E4000A41A0020C139001000000000000000009A
:102E5000F41100207937001000000000000000008D
:102E6000BC40001024410010237A0F2B00D9C4E687
:102E7000B54AEB18DB78002A05D0B44A12789342A1
:102E800063D39B1ADBB2002B00D0B6E6B048B14E3C
:102E900000F074FB01215846F36808AA98470028FF
:102EA00000D02CE66022160023791E401A4200D082
:102EB000A3E663790A3B012B00D99EE600F05EFB96
:102EC00063790A2B00D135E1584608A900F0D6FAFB
:102ED00015E6237A0F2B00D98FE69B4AEB18DB7897
:102EE000002A06D0994A1278934200D2F6E09B1A43
:102EF000DBB2002B00D080E69548964E00F03EFBFA
:102F000001215846F36808AA984738E7002A00D0FC
:102F100073E60023984663E7430098468E4B40448F
:102F20001B68C00098468044002A00D158E74346F9
:102F3000002B00D161E6D86800F020FB4346012158
:102F40005846DB6808AA984719E7834A5E00F318D9
:102F50001668DB00F618002E00D14EE6F06897E701
:102F6000A37900931A006B789A4207D06B78002BF4
:102F700000D057E1009B002B00D0F9E0009B5846A1
:102F800008A96B7000F07AFAB9E56B7806AA0232EC
:102F900013705846012308A900F088FAAFE5E088CD
:102FA000030AC0B20F2B00D927E66C499A008A5851
:102FB000974608A800F0E8FA5846A179FFF756FBB3
:102FC00002222B7813432B7099E5E388012B00D064
:102FD00013E608222B785846934308A92B7000F07B
:102FE0004DFA8CE50220297806AB9A1C8B068908DD
:102FF000DB0F01400B4308E7E388012B00D0FCE521
:1030000008222B785846134308A92B7000F036FA93
:1030100075E5534B002B00D1EFE500E000BF021E29
:1030200000D1EAE5D37891781B020B43584608A9F2
:1030300000F03CFAA3E64B4B002B00D1DDE500E0AD
:1030400000BF021E00D1D8E55846137808A900F049
:103050002DFA94E62189FDF7C3FA021EF4D1CCE5DE
:10306000022B00D11CE1404B002B00D1C5E500E054
:1030700000BF0200002A00D1BFE5D3E7FDF7A4FAA4
:103080001223020008A9584600F010FA77E6314BE7
:103090002F48984650E7E288002A09D14B46012B79
:1030A00027D0009BEB189E193036F3789B0734D558
:1030B0004346002B00D122E5D86800F05FFA434672
:1030C0000121DB6808AA58469847002000F056FA0C
:1030D0003423EB5CDB0700D511E5F5E61E4A5E0004
:1030E000F3181668DB00F618002E00D185E5F068AD
:1030F00004E7009BEB189E193036F3789B07D7D571
:103100001A4B1878FFF7E0FB0222F37893434A4604
:10311000F370F3789343F370CAE7144B1878FFF712
:10312000B7FB0222F37813430122F370F3781343C1
:10313000F370BDE706AB9A1C5846012308A9167028
:1031400000F0B4F9DBE4C04600000000A41A00203F
:103150001938001024410010F4110020E440001040
:10316000000000000000000000000000A40E00208D
:10317000581EC0B2FDF730FA002800D13DE5437873
:10318000022B00D039E50121C279931152110B4075
:103190000A4012015B0113432A782F318A431343FB
:1031A0002B700923994681444E46C37882781B02CE
:1031B0001343C3180293029BB34200D8ADE001222F
:1031C000737803920B2B03D1F37803933378F618BB
:1031D0007378042B00D010E50021029B554A9B1BFD
:1031E0009BB20193544B884604931B788A4268D063
:1031F00032000E0090469E4256D300D0FDE44F4B65
:10320000019A4146584691469847082803D94B46AB
:10321000834200D388E0049B01361B78F6B2B342A8
:10322000E9D2EAE45846FFF71DFBAB78414A019327
:10323000414B002699461B78002A0ED0404A904602
:103240009E4223D31FD13F4B584698474B460136E9
:103250001B78F6B2B342F3D206E0584600F08CFA7F
:103260004B461B78002B0ED1532200212800FFF77C
:1032700073F81022FF21E81CFFF76EF82022FF21CF
:103280003148FFF769F8019BAB7073E6424618239B
:103290001268734394466344002BF4D05B68D3E711
:1032A000FDF79AF90200E5E6254B1B680593182304
:1032B000059A734394466344002B00D19DE49B68B8
:1032C0009EE731005846019A00F060FA81460828CE
:1032D00000D892E4019B834200D28EE40022404653
:1032E0000AE0B378D318DBB2EB18D978FF2900D005
:1032F00083E40132D870D2B2039B9A42F1D1804666
:10330000030031004A46104800F0FAFB049B4E448B
:103310001B78434500D34EE76FE40C4B002B00D1E4
:103320002CE600E000BF29E643468146B0461E0079
:10333000D4E7C04600000000A41A00208D3700101A
:10334000F411002079370010D31200200000000093
:10335000F8B557464E46DE4645460C00E0B5160029
:103360001F00002A3CD0702398461E4B00259B4628
:103370001D4B9A461AE05B461B782000994653463F
:10338000997800F081FB00281CD021004846FFF707
:10339000E5F9002816D0A378DA09012A19D00A9A8B
:1033A000013513702378E418B54219DA6378052BD8
:1033B00008D1E3789B079B0FBB4203D14246A37819
:1033C0001A42D8D00020F0BCBB46B246A946A0465F
:1033D000F8BD0B9A013513702378E418B542E5DB8C
:1033E0000120F0E7A40E0020C0120020074B0800C7
:1033F00019687F2310B50340C0095B0033301818EB
:10340000034B181800F018FB10BDC0461413002021
:10341000C01200207F2070B508400F4C4000CD093D
:10342000241864193034E5780020ED0700D570BD0C
:103430000126E578094835430078E570FFF716FA6C
:103440000028F4D10122E3789343E370E378033258
:103450009343E370EBE7C046C0120020A40E0020A7
:103460007F22CB090A40044952008918C91830311B
:10347000C878C007C00F7047C012002070B50A4E50
:103480000500300008220C00FEF76CFF00237F21AE
:10349000F3602278B36091425B412800D901002299
:1034A0000023FFF7B7FF70BDF8110020F8B5CE4636
:1034B000474691462A4E80B50822070030000D008D
:1034C0009846FEF74FFF4B46B3600023F381EC793B
:1034D000A97924020C43231C444500D943469AB2DF
:1034E0009046B381002C13D0002A1FD04B46002BEE
:1034F00034D0131C402A1FD89BB2984633787F2BB8
:1035000020D80021174A43463800FFF783FF09E01F
:103510007F222B7838009A42644100230022E10187
:10352000FFF778FFC0BCB946B046F8BD33787F2BB3
:1035300011D980210022E6E740239BB298463378D8
:103540007F2BDED9074C424649462000FEF70AFF92
:1035500080212200D7E700210022D4E70020E1E704
:10356000F81100208012002010B51422002102481A
:10357000FEF7F2FE10BDC046F8110020014B1861A5
:103580007047C046F811002010B5054C0100082214
:103590002000FEF7E7FE0023A360E36010BDC046F5
:1035A000F8110020F8B53B4C1D0023780600DA091D
:1035B000C9098A4213D00020002D00D0F8BD364B37
:1035C000002B03D021003000FFF7BAF82369002B4D
:1035D00044D022000321300098470120EEE77F2BE2
:1035E00006D8A068002837D02A002C49FEF7BAFE7A
:1035F000A368E28959195219E38892B2E281A16065
:10360000934214D03F2D12D9A589A81A071C80B265
:1036100040282FD82378BFB27F2B2DD80021AA4273
:1036200035D01E4A3B003000FFF7F4FEC6E72369A1
:10363000002B05D0220002213000984700280FD02F
:103640007F220021237830009A4249410023002242
:10365000C901FFF7DFFEB1E70020AFE70120ADE7CA
:1036600000213000FFF714F930008021FFF710F936
:103670000120A3E74027CDE7AA4207D0074C3A0034
:103680002000FEF76FFE80212200CBE78021002280
:10369000C8E7C046F8110020412700108012002022
:1036A0002C2343430B4810B5C0184478FFF772F938
:1036B000002801D1002010BDFFF774F90028F9D1CE
:1036C000002CF7D021000020FFF7CAFE012358404C
:1036D000C0B2F0E74C120020F0B54746CE4680B5A8
:1036E00083B06E460F0019000023327005000622D9
:1036F000737000292FD0B01CFEF734FE2C246C43CD
:10370000174BA1469846C1444B4600205978FFF715
:103710006DFE00280FD0002F12D10834444423003E
:1037200006CE06C308232C20454345442200002032
:103730006978FFF76FFE03B0C0BCB946B046F0BD74
:103740004B46083444441F7208223100601CFEF7C7
:1037500009FE0923E7E70021B01CFEF7FDFDCDE7D8
:103760004C12002010B52C2200210248FEF7F4FD77
:1037700010BDC0464C12002010B52C22002102487A
:10378000FEF7EAFD10BDC0464C120020F0B54B79A3
:1037900006000D0083B0032B0AD10879C400241A57
:1037A0001234A4B2944203D81A4F7B78002B03D072
:1037B0000024200003B0F0BD097869184B78212B54
:1037C000F6D1B9620B780200C9187B1C0193BB1CAF
:1037D000009330000323FFF7BBFD0028E8D0AB794E
:1037E000012B13D001233B71AB78BA6A3B70137A7B
:1037F000D1791B020B43B978FB800029D9D03A005C
:10380000102330001832FFF705FED2E7EB79FB708A
:10381000E8E7C0464C1200201F23F0B514001278D0
:10382000050083B01340012B17D1614E2079337806
:10383000984212D1602318001040134208D020286B
:103840000BD163780B2B08D85A4A9B00D3589F465C
:10385000012908D16378062B07D0002003B0F0BD02
:10386000721D012957D00120F8E7E378212B00D100
:1038700080E0222BF1D10020FCF7AAFE21000200FB
:10388000F3882800FFF712FE0120E7E7012917D08F
:103890000329E8D1A178484B3171002BE3D00020F7
:1038A00000E000BF0120D9E70129DCD1E178434BDA
:1038B0007171002B04D0002000E000BF0028CCD0A4
:1038C00021002800FFF7DAFD0120C7E701295BD0BE
:1038D0000329C8D1E079A37900021843E278A178DE
:1038E000041C102800D910243300A4B21833002976
:1038F00008D0012806D9307E884203D13300013C2C
:10390000A4B2193300200094FCF748FE0120A5E77B
:103910000129A8D1321D012321002800FFF7C6FD8F
:1039200001209BE701299ED1E379A0791B02034383
:10393000E278A178181C102B00D9102080B2002941
:1039400031D0012B2FD9330001270138317280B2D9
:10395000093300900020FCF723FE3F18BBB2002B78
:1039600000D17AE73200210028000832FFF79EFDDF
:10397000012073E7B26A002A00D16EE72100280017
:103980001378FFF793FD69E7E379A2791B021343EC
:10399000102B00D961E73200210028001832FFF710
:1039A00085FD01205AE7330000270833D1E7C046E0
:1039B0004C1200203C4100100000000000000000FC
:1039C00070B5164C0500A27882B08A420FD161789A
:1039D000914211D1124A0125002A05D02100002070
:1039E0009AB20831FCF7DEFD280002B070BD6278A3
:1039F00000258A42F8D1EDE726009BB21836002256
:103A00000021002000933300FCF7C8FD280010239C
:103A10003200A178FFF7FEFC0500E5E74C1200201C
:103A2000A505001010B50020FEF7E6FF10BDC0464A
:103A300010B5FEF7D7FF10BD037870B5DB070400A3
:103A40000E00DD0F002B17D103785B0701D528008E
:103A500070BD01213000494200F08EF92378DB0768
:103A6000DD0F002B0AD123785B0708D404222378CA
:103A700001251343237002E00025E8E7002530000C
:103A800000F062F9E3E7C04610B5437904791B0200
:103A900023435B055A0DC3789B079B0F022B05D070
:103AA000032B15D00020012B08D010BD02291CD0FB
:103AB0000020402393424041C0B2F6E702394B4216
:103AC00059410D4B9C46614491424041C0B2ECE7E4
:103AD00002394B425941F023002049429B001940D2
:103AE000403191424041C0B2DFE7044BD3185A4203
:103AF0005341D8B2D9E7C046FF03000000FEFFFFE4
:103B00008A1870B5914207D27F264C78052C04D0D4
:103B10000C7809198A42F8D870BD34008D782C4091
:103B200064000419ED0963550C7809198A42ECD830
:103B3000F2E7C04670B5040000690E00002803D00B
:103B40000121494200F018F925896089A288A9B2AB
:103B500083B285422CD3CD1AADB2002D2ED0AA420D
:103B600008D2914231D38B1A9BB263819A4203D817
:103B70009B1A9BB29A42FBD9E28821685204520CEC
:103B800053433000C918FEF7EDFB618901254B1C3A
:103B90009BB2A288994214D9002352009B1A9BB26F
:103BA00020696381002801D000F0CEF8280070BDA4
:103BB0005500ED1A4D19ADB2002DD0D10025638905
:103BC0009BB252009342EBDBE8E789188BB263812A
:103BD000CCE7C046F8B50400C0680E00002803D04A
:103BE0000121494200F0C8F8258920896189A2880D
:103BF000ADB283B28FB2884228D3DB1B9BB29A420C
:103C000009D8E779FF0906D1E068002801D000F063
:103C10009BF83800F8BD2B00954203D39B1A9BB24A
:103C20009342FBD2E28821685204520C5343C818D5
:103C30003100FEF797FBA2886B1C9BB252009D429D
:103C400009D99B1A9BB201272381DDE75100C91BCB
:103C50005B189BB2D3E79342F5DBF2E710B50400A3
:103C6000C068002803D00121494200F085F820698E
:103C7000002803D00121494200F07EF80023E068CB
:103C800063812381002801D000F05EF820690028BC
:103C900001D000F059F8012010BDC04610B5192020
:103CA000FCF7DEFCD02380221B0692045A6210BD72
:103CB000D02380221B069204002801D05A6170474D
:103CC0009A61FCE710B583070AD00300032102E0E4
:103CD00001330B4205D01A78002AF9D1181A10BD09
:103CE000030019680C4A0D4C8A188A4322420FD1EE
:103CF0005968094A04338A188A43224208D159680C
:103D0000054A04338A188A432242F1D000E0013385
:103D10001A78002AFBD1E1E7FFFEFEFE808080805A
:103D2000F8B5C0460000000001B40248844601BC5A
:103D3000604700BFB509002001B40248844601BCB9
:103D4000604700BF8D02002001B40248844601BCD8
:103D5000604700BFED01002001B40248844601BC69
:103D6000604700BF5D0D002001B40248844601BCDD
:103D7000604700BF5103002001B40248844601BCE3
:103D8000604700BF5D01002001B40248844601BCC9
:103D9000604700BFC100002001B40248844601BC56
:103DA000604700BF310B002001B40248844601BCCB
:103DB000604700BF8D09002001B40248844601BC61
:103DC000604700BFCD0A002001B40248844601BC10
:083DD000604700BFD90A002082
:103DD80054696E795553420054696E79555342209F
:103DE8004465766963650000313233343536000046
:103DF8000904000009022200010100A032090400A0
:103E080000010300000009211101000122EF000751
:103E180005810310000500001201000200000040A7
:103E2800FECA044000010102030100000501090661
:103E3800A1018501050719E029E715002501950865
:103E48007501810295017508810105081901290587
:103E580095057501910295017503910105071900F2
:103E68002AFF00150026FF00950675088100C00589
:103E7800010902A10185020901A100050919012909
:103E880005150025019505750181029501750381C8
:103E9800010501093009311581257F9502750881D1
:103EA8000609381581257F950175088106050C0AD4
:103EB80038021581257F950175088106C0C0050C5B
:103EC8000901A1018503150026FF0319002AFF0334
:103ED800950175108100C005010905A1018504053A
:103EE80001093009310932093509330934158125A9
:103EF8007F950675088102050109391501250835E0
:103F080000463B0195017508810205091901292020
:103F180015002501952075018102C0004E6F2073A0
:103F280070696E6C6F636B73206172652061766176
:103F3800696C61626C6500004861726477617265E2
:103F480020616C61726D20256420616C726561640A
:103F58007920636C61696D65640000000A2A2A2A69
:103F68002050414E4943202A2A2A0A000A0000000C
:103F780048617264206173736572740052656C6580
:103F880061736500626F6F74325F773235713038F4
:103F98003000000068747470733A2F2F6769746872
:103FA80075622E636F6D2F726173706265727279BC
:103FB80070692F7069636F2D6578616D706C6573BA
:103FC8002F747265652F484541442F737263000052
:103FD800312E352E300000007069636F000000003C
:103FE8006D61696E00000000446563202033203253
:103FF8003032330006005250BBFF3CB6E03F0010A1
:10400800060052509A2356189C3F00100600525042
:10401800E182887F8C3F001006005250D3F0754231
:10402800843F00100D0A0000556E68616E646C656F
:10403800642049525120307825780A00657020257F
:10404800642025732077617320616C7265616479DF
:1040580020617661696C61626C65000043616E275E
:104068007420636F6E74696E75652078666572205A
:104078006F6E20696E6163746976652065702025AE
:1040880064202573000000006F757400696E0000DD
:10409800FE2A0010A62C0010422C0010FE2A001048
:1040A800242C00100C2C0010A22B00104C2B0010FC
:1040B800402B0010E42F0010CA2F0010FA2B00101C
:1040C800F82F0010FA2B0010B22F00109E2F0010AE
:1040D800FA2B00108A2F0010602F0010FA2B001006
:1040E8007C3000106030001054300010FA2B0010A3
:1040F800FA2B00103630001060300010FA2B001038
:10410800FA2B0010FA2B0010FA2B0010FA2B0010D3
:10411800FA2B0010FA2B001012300010653700102F
:10412800793700108D37001019380010C139001088
:10413800000000005A3800102439001060380010C0
:10414800103900105A3800105A3800105A38001028
:104158005A3800105A380010CC380010A83800100F
:104168008C3800104C4544000900525000000002F1
:044178006C41001086
:10417C00AC020010A002001094020010FC3F0010D2
:10418C00880200100840001014400010204000105D
:04419C00704100105E
:1041A000F0B5C646150000B504001E000268EFF326
:1041B000108172B61368002BFCD0BFF35F8F04230D
:1041C000E356002B2DDB2268BFF35F8F00201060C9
:1041D00081F31088D0221206127852B290469A4289
:1041E00003D1002080BCB846F0BD00270BE0236857
:1041F000BFF35F8F1F6081F310882800310000F04B
:104200004FFE0028EDD12268EFF3108172B61368DB
:10421000002BFCD0BFF35F8F23797F2BE7D9434678
:1042200002E0D0231B061B6823712368BFF35F8F56
:1042300000221A6081F310880120D3E7F0B5C6464A
:1042400000B50D00040000F01BFEFA2206000F006E
:10425000002328000021920000F00AFE36184F418A
:10426000002F2CDBD0231B061B68002598460BE093
:104270002368BFF35F8F1D6081F310883000390021
:1042800000F00EFE002818D12268EFF3108172B6FC
:104290001368002BFCD0BFF35F8F23797F2BE7D906
:1042A000434623712368BFF35F8F00221A6081F3B6
:1042B0001088012080BCB846F0BD0020FAE7012636
:1042C000014F7642CEE7C046FFFFFF7F0268EFF363
:1042D000108172B61368002BFCD0BFF35F8FFF23F1
:1042E00003710368BFF35F8F00221A6081F31088A7
:1042F00040BF7047084810B50378002B0AD18023CF
:104300000649074A5B051C68CC5004339342FAD136
:104310000123037010BDC046A61A0020EC13001044
:104320000001001010B5024B0133984710BDC04684
:10433000EC130020034B1A68C0239B009343024AEE
:10434000136070470C8001400C900140054B1A68C7
:1043500080239B005340C02292001340024A136006
:104360007047C0460C8001400C9001401423F0B50A
:10437000D6464F4646469A46814618880433C0B50D
:1043800098460E001B88274914009847534607009B
:104390001888434624491B889847534605001888C7
:1043A000434622491B8898478046FFF7A3FFB8473A
:1043B000A847FFF7CBFF002C1BD0C0212200082705
:1043C000022049053D008B6A1D4018420BD0002C8D
:1043D00009D0131B0D2B1FD84B461B78013C0B66D5
:1043E00001239C46E1442300002D0CD11343002BF4
:1043F000E8D1FFF79FFFC047FFF794FFE0BCBA4644
:10440000B146A846F0BD002AF1D00B6E013A3370D8
:10441000130001362343EAE7002DD3D0002AD1D080
:10442000F3E7C046494600004558000046430000F7
:1044300000231C4A10B59360D3601B4A002193608F
:10444000D3601A4A1A489360D3601A4A9360D360C3
:10445000194A9360D360194A9360D360184A9360F5
:10446000D360184A9360D360174A9360D360174AA9
:104470009360D360164A9360D360164A9360D3600A
:10448000154A9360D360154A9360D360144A9360D1
:10449000D360F022920000F0FBFC124B124A1A602B
:1044A00010BDC04600001050080010501000105001
:1044B000A4150020180010502000105028001050A3
:1044C000300010503800105040001050480010507C
:1044D00050001050580010506000105068001050EC
:1044E000700010507019002080011050F0B5574630
:1044F000DE464E464546E0B5234B87B09F6D002F04
:1045000023D0224B0024994601239846204B0126B4
:104510009A4604E001347600E4B2202C15D03E42E5
:10452000F8D04B469E65434665086D00A343ED18E1
:104530006D015544280000F0A1FB00280CD1013486
:10454000B743E4B27600002FE7D107B0F0BCBB461A
:10455000B246A946A046F0BDAB7808229B46EB8A3E
:10456000002103A8019300F093FC0723594602AAF7
:104570005371019B117203A80121059300F0A6FB62
:10458000280000F013FBDAE7000011500030115052
:10459000641500209823D14A70B5D55880232C008B
:1045A0009B02102684B01C401D4278D0CC4BCD4CD1
:1045B0009A6ACD4B00261A603B23E35C022B00D1A4
:1045C000D7E07B23E35C022B00D11AE2BB23E35C40
:1045D000022B00D103E2FB23E35C022B00D1ECE1D0
:1045E0003C23FF33E35C022B00D1D1E17C23FF337A
:1045F000E35C022B00D1B6E1BC23FF33E35C022B6A
:1046000000D19BE1FC23FF33E35C022B00D14FE19F
:10461000B64BE35C022B00D136E1B54BE35C022BD9
:1046200000D11DE1B34BE35C022B00D104E1B24B9E
:10463000E35C022B00D1EBE0B04BE35C022B00D13A
:10464000D2E0AF4BE35C022B00D1B9E0AD4BE35CB1
:10465000022B00D19EE0AC4BE35C022B00D1E2E1E7
:10466000002E08D1A94B1B78002B04D18021A84A29
:1046700090338902D15001AE984B0C2200213000BA
:104680009C6C00F005FC03236405640D737030001E
:1046900002940121802400F019FB9E4EA402EB0637
:1046A00063D480235B021D4214D0012223211C43CA
:1046B0008C4B5A54DA70C023974ADB00019302AB4B
:1046C00003CA03C3012101A800F000FB8022904B24
:1046D00092021A6580235B011D422FD18023DB01EA
:1046E0001D421AD180231B021D4204D1AC4200D0CE
:1046F000B3E104B070BD01AE0C22002130001C43B8
:1047000000F0C6FB052301217370300000F0DEFAD3
:1047100080227F4B12011A65E8E701AE0C220021CE
:1047200030001C4300F0B4FB0423012173703000FF
:1047300000F0CCFA1022764B1A65D3E700221C4316
:10474000664B01AE1A60FFF773FE0C2200213000A9
:1047500000F09EFB012301217370300000F0B6FAD7
:1047600080226B4B12031A65B8E7FFF7BFFE3400D7
:1047700097E73833E65C002E00D122E70233E25C93
:10478000002A00D11DE700222000E254203000F072
:104790003FFA16E7614BE35C002B00D15BE7EF23A8
:1047A0009B00E25C002A00D04FE1574BE35C022BF8
:1047B00000D060E75A4BE35C002B00D038E15AE7A9
:1047C000584BE35C002B00D140E7DF229200A15C54
:1047D0001E00002900D139E70023A354D8239B00F1
:1047E000E01800F015FA31E74F4BE35C002B00D1E5
:1047F00027E7CF229200A15C1E00002900D120E70C
:104800000023A354C8239B00E01800F001FA18E726
:10481000464BE35C002B00D10EE7BF229200A15C67
:104820001E00002900D107E70023A354B8239B00F2
:10483000E01800F0EDF9FFE63D4BE35C002B00D102
:10484000F5E6AF229200A15C1E00002900D1EEE641
:104850000023A354A8239B00E01800F0D9F9E6E652
:10486000344BE35C002B00D1DCE69F229200A15C7C
:104870001E00002900D1D5E60023A35498239B00F5
:10488000E01800F0C5F9CDE62B4BE35C002B00D11E
:10489000C3E68F229200A15C1E00002900D1BCE675
:1048A0000023A35488239B00E01800F0B1F9B4E67C
:1048B000F933FF33E35C002B00D1A9E6FE2252005E
:1048C000A15C1E00002900D1A2E620000023E130F7
:1048D000A354FF3000F09CF99AE6C0460000115046
:1048E00000400540641500205C1500203B020000DC
:1048F0007B020000BB020000FB0200003B03000043
:104900007B030000BB030000FB030000A51A00208E
:10491000003011501000020000001050BA030000D7
:10492000FA0300007A0300003A030000FA020000D4
:10493000BA0200007A0200003A020000B933FF33E5
:10494000E35C002B00D15DE6DE225200A15C1E007C
:10495000002900D156E620000023A130A354FF30E7
:1049600000F056F94EE67933FF33E35C002B00D1BB
:1049700042E6BE225200A15C1E00002900D13BE6A7
:10498000200000236130A354FF3000F041F933E6EA
:104990003933FF33E35C002B00D127E69E2252001F
:1049A000A15C1E00002900D120E620000023213058
:1049B000A354FF3000F02CF918E6F833E35C002B29
:1049C00000D10DE6FC22A15C1E00002900D107E603
:1049D00000232000A354E03000F01AF900E6B833B9
:1049E000E35C002B00D1F6E5BC22A15C1E0000298F
:1049F00000D1F0E500232000A354A03000F008F916
:104A0000E9E57833E35C002B00D1DFE57C22A15C93
:104A10001E00002900D1D9E500232000A3546030F6
:104A200000F0F6F8D2E50F4BE35C002B00D117E65F
:104A3000FF239B00E25C002A00D11CE60022E25426
:104A40001C3BE01800F0E4F815E60022E254E823ED
:104A50009B00E01800F0DCF8A7E62100024869405E
:104A600000F0EEF9FA03000030400010084A03009D
:104A7000126C0020920703D49A78D209012A00D040
:104A80007047D87E023843425841C0B2F8E7C0466A
:104A90000000115010B5FFF7E9FF00280CD00749BE
:104AA000074B8C46074A9B6A126863449B1A002096
:104AB000C6229A424041C0B210BDC046E0FCFFFF92
:104AC000004005405C150020F8B5028B838A040085
:104AD0000F00161C9A4200D91E1C8025B6B29B1BE3
:104AE000E2789BB2ED00A3823543002A02D09025E4
:104AF000AD01354301214A40E2706278002A09D0B5
:104B0000002B02D18023DB011D43002F00D02D0498
:104B10002800F8BDE368B8019C4632006044216972
:104B200000F09EF923699C46802366441B021D43C6
:104B30002661A38AE4E7C046836870B504001D6857
:104B4000002900D02D0C6378AD05AD0D002B09D1E7
:104B5000E38AEB18E382238BAB4201D90023A382C3
:104B6000280070BDE36889019C462A0020696144E1
:104B700000F076F9E38AEB18E38223695B1923617D
:104B8000E9E7C04610B50400836800211B68FFF701
:104B9000D3FF63681B685B0002D5238B834200D080
:104BA00010BD01212000FFF7C7FFF9E7002383763E
:104BB000436103617047C04610B58368002901D086
:104BC0001C682140002A11D08024E40011432242B5
:104BD0000CD01A6822420BD10A4A0A401A60FFE739
:104BE000FFE7FFE7FFE7FFE7FFE78368196010BD16
:104BF0007F2281780448CB091140044A9B009A58CF
:104C000000F01EF9FFFBFFFF44400010800E002063
:104C1000436870B5002180251E680400FFF754FF2B
:104C2000134B6D011B6C05439B070FD5A3785B06E7
:104C30000FD0104B1E4080239B0533436268002138
:104C4000136020002A00FFF7B7FF70BDA378DB09CF
:104C5000EFD0A38A002BECD001212000FFF734FF16
:104C6000A023054ADB05324005431343E6E7C0466F
:104C700000001150FFFFFFAFFFFFFFDF70B5857E23
:104C80000400002D13D0FFF77DFFA38A002B01D174
:104C9000280070BD2000FFF7FDFE051E03D0012394
:104CA00000252377F4E72000FFF7B2FFF0E77F222B
:104CB00081780448CB091140034A9B009A5800F0C0
:104CC000BFF8C04664400010800E0020F0B5437865
:104CD000050085B0042B00D175E046D8022B00D129
:104CE00083E0032B55D1504E504A00243378002ADC
:104CF00000D192E04E4F03E00134E4B29C4214D85C
:104D0000A342F9D9396862008C461219D200624474
:104D1000002AF1D05269002AEED0287869689047BD
:104D200001343378E4B29C42EAD9424B1A785207F4
:104D300047D504211A7801A88A431A7000210C2251
:104D400000F0A6F86A462B781371052353713A4B8D
:104D50001C686269EFF3108172B61368002BFCD0F7
:104D6000BFF35F8FA16101A920E0052B11D1314B69
:104D70001A78D20725D504211A788A431A702E4B47
:104D80001C686269EFF3108172B61368002B09D1B9
:104D9000FBE7294B1C686269EFF3108172B6136858
:104DA000002BFCD0BFF35F8FA1612900200000F031
:104DB0004FF86269A369BFF35F8F0021116083F32D
:104DC000108805B0F0BD1B4B1A78D207F9D5042125
:104DD0001A780A431A70184B1C686269EFF3108145
:104DE00072B61368002BDDD1FBE70120114A117860
:104DF000814311701178994300231170042153707D
:104E000013788B4313700C4B1C686269EFF31081AD
:104E100072B61368002BC5D1FBE700220132D2B273
:104E20009A42FBD981E7C046A41A00200000000086
:104E3000F4110020C0120020181300207047C04653
:104E400001B40248844601BC604700BF2D1F00101A
:104E500001B40248844601BC604700BFD53B001046
:104E600001B40248844601BC604700BF65230010BE
:104E700001B40248844601BC604700BF29210010EC
:104E800001B40248844601BC604700BFFD14001015
:104E900001B40248844601BC604700BF592300109A
:104EA00001B40248844601BC604700BFB113001042
:104EB000F83D0010D83D0010E03D0010F03D00101E
:104EC00010000000000000000000010000000000D1
:104ED00000000000000002000000000000000000D0
:104EE0000000030000000000000000000000FF00C0
:104EF0000000000001B5486801318E460047704649
:104F000009380149884701BD010C0010440E0020FA
:104F100000000000C80E002018150020000000004E
:104F20000000000028150020000000000000000024
:104F30001000000000000000000000000000000061
:104F4000503300004C330000543300005233000053
:104F50004D5300004D430000533400004334000023
:104F600090400010944000101C13002010000C0012
:104F70000000000000000000000000000000000031
:104F800000000000FF000000000000000000000022
:104F900049230010A91F001069200010752200107D
:084FA00031030010112600107E
:04000005100001E9FD
:00000001FF
